:020000041000EA
:1000000000B52F4B212058609868022188439860E2
:10001000D860186158612B4B002199600221596109
:100020000121F02299502849196001219960352059
:1000300000F03EF80222904214D00621196600F02A
:100040002EF8196E01211966002018661A6600F054
:1000500026F8196E196E196E052000F029F8012195
:100060000842F9D1002199601849196000215960AE
:1000700017491848016001219960EB211966A021F8
:10008000196600F00CF800219960134911480160CD
:100090000121996001BC002800D11048004703B538
:1000A000996A04200142FBD001200142F8D103BD2E
:1000B00002B518661866FFF7F2FF186E186E02BDDB
:1000C00000000240000000180000070000035F006D
:1000D00021220000F4000018222000A001010010DD
:1000E0000000000000000000000000000000000010
:1000F0000000000000000000000000003E272A6011
:10010000274800E000202749886006C881F3088856
:10011000104725480068002839D112A40ECC0029C8
:1001200002D000F012F8F9E72049214A002000E04F
:1001300001C19142FCD11F4988471F4988471F4987
:10014000884700BEFDE701C901C29A42FBD3704750
:10015000F2EB8871FC8800101C890010640100100B
:1001600090A31AE71C890010C0000020F40B0020A7
:10017000509400100000042000000420509400104F
:1001800000100420001004200000000070470C48FC
:1001900003F07AFB0047EFF30580C0B27047000020
:1001A0000002001000ED00E0000000D0F40B002081
:1001B00008180020C51E001001040010CD1F0010FB
:1001C0005756000006005250ABB360535C820010DB
:1001D00006005250861C03026C820010060052502A
:1001E0005422A29D8482001005005250DE65F468FE
:1001F000509400100000000000000000000000000B
:100200000020042013010010C3020010C5020010DA
:10021000C1020010C1020010C1020010C102001092
:10022000C1020010C1020010C1020010C70200107C
:10023000C1020010C1020010C9020010CB02001060
:10024000CD020010CD020010CD020010CD02001032
:10025000CD020010CD020010CD020010CD02001022
:10026000CD020010CD020010CD020010CD02001012
:10027000CD020010CD020010CD020010CD02001002
:10028000CD020010CD020010CD020010CD020010F2
:10029000CD020010CD020010CD020010CD020010E2
:1002A000CD020010CD020010CD020010CD020010D2
:1002B000CD020010CD020010CD020010CD020010C2
:1002C00000BE00BE00BE00BE00BE00BEFFF763FF62
:1002D000103800BEF8B5C0460448054B10B583423F
:1002E00003D0044B002B00D0984710BDF40B002026
:1002F000F40B00200000000006480749091A891085
:10030000CB0F591810B5491003D0044B002B00D067
:10031000984710BDF40B0020F40B002000000000F3
:1003200010B5074C2378002B09D1FFF7D5FF054BFB
:10033000002B02D0044800E000BF0123237010BD51
:10034000F40B002000000000C8740010054B10B52D
:10035000002B03D00449054800E000BFFFF7CCFFA5
:1003600010BDC04600000000F80B0020C87400104B
:1003700070B586B0012801D006B070BD1A4B994205
:10038000FAD11A4C1A4E1B4D22003100280000F001
:10039000EDFB22000C322C000C343100200000F068
:1003A000E5FB05950F230493013B0393013B029367
:1003B000013B0193013B0093013B092200210E48C0
:1003C00000F0ACF905941023049301330393013337
:1003D000029301330193013300930133162201216B
:1003E000064800F09BF9C7E7FFFF0000B8020020B5
:1003F000680E0020FC140020A00D0020040E002038
:1004000070B506F010FB00F0E3F80225094C002D52
:1004100005D0200000F005FB013D6434F7E7022120
:10042000044800F03DFB044806F084FB00F0D4F8DB
:10043000FCE7C046A00D0020B50A001010B5024927
:100440000120FFF795FF10BDFFFF00000170421C67
:100450000523002B04DB002111700132013BF8E77A
:100460000023C3710372704710B5012800D010BD7E
:10047000034B9942FBD100210248FFF7E7FFF6E763
:10048000FFFF0000680E0020007A704730B500239F
:1004900001225242002505E0C4186478002C05D1E1
:1004A0001A000133052B07D8541CF5D0C418647802
:1004B0008C42F6D10125F4E7531C06D0002D04D15F
:1004C0000123037284186170C371531C00D001258D
:1004D000280030BD70B50023002404E0C218527813
:1004E0008A420CD00133052B1AD8002CF6D05A1EA4
:1004F000C5186E788218567000226A70F2E7C2182A
:10050000002454700122C271002B01D00124E9E7BC
:100510008278002A02D102720134E3E70124E1E784
:10052000200070BD10B50400407A00280ED0E37999
:10053000002B01D1002909D02178631C0022002062
:1005400005F092FF002801D00023E37110BD30B503
:1005500083B00C00150000236A4613705370411CD1
:1005600006226B46981C04F013F92A1C082D00D9AA
:10057000082292B26946200004F00AF903B030BDA7
:1005800041727047407A7047F8B501250F4C00263C
:100590000027002D0ED02000FFF776FF002800D0A6
:1005A00007002000FFF7EEFF002800D00600013D05
:1005B0000A34EEE7002E03D0002F02D0002600E020
:1005C0000026300006F03BFAF8BDC046680E002059
:1005D00010B506F045F910BD10B505F0D3FCFFF7D6
:1005E000D3FF10BD70B50124054D002C06D00121AC
:1005F0002800FFF7C5FF013C0A35F6E770BDC0468D
:10060000680E002070B50124054D002C06D0002195
:100610002800FFF7B5FF013C0A35F6E770BDC0467C
:10062000680E002070B50124054D002C06D0002175
:100630002800FFF7A5FF013C0A35F6E770BDC0466C
:10064000680E002070B50124054D002C06D0012154
:100650002800FFF795FF013C0A35F6E770BDC0465C
:10066000680E002010B511008400201844000348D3
:1006700000191A00FFF76BFF082010BD680E00205C
:1006800010B5DBB20021002005F0ACFE10BD00006B
:1006900010B502490120FFF7E7FE10BDFFFF000083
:1006A00000487047F8740010004870470C7500103F
:1006B00000487047CC74001070B500280DD0022897
:1006C00025D88000134BC558280006F05FFDC0B246
:1006D0001F2800D91F2000230EE00E4B19680E487A
:1006E0000222023004F054F8012007E05A1CEC5CAE
:1006F0005100094BCC52D3B29842F7D80130400098
:10070000C0239B001843044B1880180070BD0020C4
:10071000FCE7C046D0020020640C0020F0B5CE46B5
:10072000474680B516009C4607AB1D7808AB1C7881
:1007300009AB1A780AAB1B7898460BAB1B78994625
:100740000170467061468170C57004714271837199
:1007500001210F00B7403E0087600F0063469F40B5
:10076000BC46C7600F00AF403D0007610F00A740C7
:100770003C0047610F0097403A0087610F004B46ED
:100780009F403B00C76167463E4335432C432243AD
:100790001343036224234246C254914081622C23B6
:1007A0000022C2540C9B0363020034320B23002B43
:1007B00004DB002111700132013BF8E700234022E5
:1007C0008354023283540CBC90469946F0BD10B558
:1007D000006B002802D00368DB68984710BD10B595
:1007E0000400006B002803D003685B6821789847F9
:1007F0002C230122E254200034300B32002103F07C
:10080000C1FF00234122A3540132A35410BD70B58F
:100810000400006B002803D003689B682178984788
:1008200000252C23E554200034300C22002103F055
:10083000A9FF4123E5540133E55470BD10B54022B2
:10084000815C036A446C23405C1EA341DBB2835489
:100850008B4203D0002B02D1FFF7D9FF10BDFFF769
:10086000BEFFFBE770B544183434237893420BD0B5
:100870002270046B002C07D023681D6800781300D9
:100880000A0001002000A84770BD023292001358F0
:1008900010318900411848681840431E9841C0B281
:1008A000704770B50400FFF7C9FF2C23E35C022BEF
:1008B00012D0032B1BD0012B00D070BD4222A35CB1
:1008C0000133DBB2A354182BF7D942230022E254A0
:1008D000163B0232E254F0E7032207212000FFF723
:1008E000D4FF4123E054153B0322E254E5E7042200
:1008F00003212000FFF7C9FF01256840C2B205218E
:100900002000FFF7AFFF052203212000FFF7BDFF06
:100910006840C2B200212000FFF7A4FF002202219C
:100920002000FFF7B2FF6840C2B201212000FFF7AC
:1009300099FF012202212000FFF7A7FF6840C2B201
:1009400002212000FFF78EFF022202212000FFF784
:100950009CFF6840C2B203212000FFF783FF0322FF
:1009600002212000FFF791FF6840C2B2042120005D
:10097000FFF778FF042202212000FFF786FF68407E
:10098000C2B206212000FFF76DFF052202212000E0
:10099000FFF77BFF4540EAB207212000FFF762FF27
:1009A0004123E35C002B00D187E7002206212000D1
:1009B000FFF76BFF01256840C2B20A212000FFF754
:1009C00051FF012206212000FFF75FFF6840C2B2FD
:1009D00009212000FFF746FF022206212000FFF731
:1009E00054FF6840C2B208212000FFF73BFF0322FA
:1009F00006212000FFF749FF6840C2B20B2120000A
:100A0000FFF730FF59E72423C25C233B93400029C2
:100A100003D0D022120693617047D0221206536190
:100A2000FAE770B50600046A836A1C43200000F0F0
:100A3000FCF8D0231B06186AB26A50402040D862E6
:100A4000751C0624002C07D028780022002100F015
:100A5000C7F8013C0135F5E701213000FFF7D3FF6E
:100A600070BD70B504000D0016002C23C35C023B62
:100A7000DBB2012B0AD90121FFF7C5FF2B00103390
:100A80009B00E3185E60072D05D070BD0121294051
:100A9000FFF7B9FFF2E72000FFF703FFF5E70000DB
:100AA000024B1860024B19607047C046440C00208E
:100AB000480C0020F0B583B000F0C0FE009001911A
:100AC00026E00134E4B2072C1CD806200021009A4D
:100AD000019B12184B41100019000090019100F089
:100AE000B9FED0231B065F68134B1E68134B1D68AD
:100AF000002DE6D03A0021003000FFF7B2FF013DA3
:100B00006436F5E70C4B1D680C4B1C68002C0DD1AE
:100B10000B480021009B019C1B184C411800210030
:100B20000090019100F096FE0024CCE72800FFF72A
:100B30004EFE013C6435E9E7440C0020480C0020DF
:100B4000204E000010B58168895C002B03D14068FD
:100B5000FFF7C0FC10BD4068FFF798FCFAE710B53E
:100B600040680021FFF7DEFC10BD0000024B083397
:100B700003604160826070476875001070B50600C0
:100B8000856800240B2C06D829787068FFF7A2FC32
:100B900001340135F6E770BD10B5FFF7EFFF10BD6A
:100BA00010B5FFF7EBFF10BD10B503F0A3FF10BDAC
:100BB00010B58300084A944663441C684022624092
:100BC000C02414408022520113431C60C000034B18
:100BD0009C466044416010BD04C00140004001409B
:100BE00080000B4B9C46604400290DD00823002A4E
:100BF0000CD100221343026853400C221340802280
:100C000052011043036070470023F0E70422F1E72C
:100C100004C0014010B501238340D0221206936224
:100C200093610521FFF7C4FF10BD70B505000024D6
:100C300001E06D0801341F2C05D8EB07F9D5200021
:100C4000FFF7E8FFF5E770BDEFF3108072B6034BD6
:100C50001B68002BFBD0BFF35F8F70472C0100D0C7
:100C6000BFF35F8F024B00221A6080F31088704739
:100C70002C0100D070B504000E001500FFF7E4FF52
:100C8000F308E3181978072232400C00D440E40737
:100C900006D40124944021431970FFF7E1FF70BD91
:100CA0003100280001F0B4F9F0B583B007000191DC
:100CB00014001E00FFF7C8FFB4420FD8E308FB186A
:100CC0001978072222400D00D540ED0701D50134E7
:100CD000F2E7012696403143197001E00124644295
:100CE000FFF7BEFF002C02DB200003B0F0BD019B2C
:100CF000002BF9D0089801F08BF90000002307E0E1
:100D0000054A9A189200BFF35F8F002111600133EA
:100D10001F2BF5D97047C04640000034054A1078B3
:100D2000431CDBB21370172B02D9130010221A7068
:100D30007047C046DC02002000B583B00100044BC0
:100D400000931F2318220348FFF7AEFF03B000BD36
:100D500080750010680D0020034B1B6802201840AE
:100D6000431E9841C0B2704700C0064070B50500F0
:100D70000C00062001F06CFAC000210002F0DCFD3E
:100D8000C6097F240440013464086E620A4B9E4207
:100D90000FD0AC622C3580239B011D4300232B60B8
:100DA000062001F055FA8000B101091902F0C4FDD6
:100DB00070BD0023AB62EDE7FFFF000000290AD100
:100DC00080225200054B9C466044434258414000FB
:100DD000034BC25270470A22F4E7C0460080FCBFB2
:100DE0003C15002070B505000C00062001F030FA1B
:100DF00000282DD0174B9D4227D08022D203164BBE
:100E00001A60164B1A60164B9B6811009943FAD171
:100E100000212800FFF7D2FF21002800FFF7A6FFDE
:100E20002C002C34E96A60224A406E211140802255
:100E30005201224311600B4B2B6380239B01234300
:100E400010221A600323AB6470BD80221204D6E71F
:100E50000020F9E70080034000E0004000F000407F
:100E600000C000400103000040BF00200021704787
:100E700010B5002922D003681B7B99421ED8174B5E
:100E80009C466144090183689C4661440C6849683A
:100E9000002A19D003681B7B9A4215D883680F4833
:100EA0008446624412019A181068536802000120B7
:100EB0008B4201D80ED00020C0B210BD084B094AA9
:100EC0003F21094801F086F8054B064A3F210648B4
:100ED00001F080F8A242EFD8EDE7C046FFFFFF0F18
:100EE00030770010F47500105477001010B5002909
:100EF0001FD0037B99421CD84B005B18033B04684E
:100F0000A446634400291AD0002A1ED0914222D060
:100F1000002A26D0047BA24223D8046850008018FF
:100F20000338201881701978002920D041701A7078
:100F300010BD104B104A4D21104801F04BF8104BDA
:100F4000104A53310D4801F045F80F4B0D4A54211A
:100F50000A4801F03FF80D4B0A4A5521074801F0B5
:100F600039F8044B044A4D21044801F033F81A7053
:100F7000DEE7C046AC7700109C750010C877001003
:100F800010780010A87500101C7800102878001048
:100F900070B506000D00140000290BD0002A12D0F5
:100FA000806873689847002806D12A002100300025
:100FB000FFF79CFF200070BD220029003000FFF7E2
:100FC00095FF2C00F6E70C00F4E70000F0B583B0C5
:100FD0000700009201930BAB1E780A9B002B28D0D0
:100FE0000268DBB2517B8B4208D10123002B1AD15E
:100FF0000A9B002B3AD10A9803B0F0BD002B0CD00D
:10100000117B8B4209D811685A00D318033BCB18C7
:101010009B78002BEAD00123E8E7424B424A4D215E
:10102000424800F0D7FF424B424A5521424800F067
:10103000D1FF03689C7B002C01D10A94D8E7002CD7
:101040000ED01A7B94420BD862001219033A196829
:101050008C46624452789A73002AEED1DA73ECE738
:10106000304B314A4D21314800F0B4FFDDB2002D44
:1010700040D03B681B7B9D423CD8304BEB181B019A
:10108000BA68944663440099019A19605A60089AB4
:101090009A60099ADA60D0231B06802212035A61F3
:1010A0003C68002D2CD031D0237B9D422ED86B0084
:1010B0005B19033B22689446634400229A705A707D
:1010C0001A70617B2A002000FFF762FF60730A9BA1
:1010D000984200D08FE7387D009A019B00F016FC03
:1010E000041E01D0002E17D00C9B002B00D182E7EC
:1010F0001C7080E7124B134A3F210F4800F06AFF33
:10110000114B124A7721094800F064FF054B064A4B
:101110004D21064800F05EFF3868290000F056FEB9
:10112000E2E7C046AC7700109C750010C87700104D
:10113000607600101476001054770010FFFFFF0F48
:1011400030770010F475001084760010BC75001024
:10115000F0B5D6464F464646C0B58CB00B908200DF
:10116000AD4BD65897E0AD4BAD4A3F21AD4800F0AE
:1011700031FF002B02D1002A00D0B2E0012128006B
:1011800000F01AFEA04217D13A687B6808920993D2
:10119000BD68FB689846002D14D0002C18D0336829
:1011A0001B7B9C4214D8631EF268D35C9A461B02D8
:1011B0001843306100209CE09B4B9C4A7D2199485C
:1011C00000F008FF9A4B994A8121964800F002FFEF
:1011D000924B984A4421934800F0FCFE0023984625
:1011E0000025002085E03369002B00D1AAE04B45A3
:1011F0001CD1089A099B08929C4606980799121AD6
:101200008B419C4503D805D10899914202D901220E
:101210005242D317002104910131039102944146B7
:10122000019100953000FFF7D1FE2CE0824B7F4A00
:1012300093217C4800F0CEFE069A079B002B02D13A
:10124000002A00D082E03368002C00D1BBE05A7B3A
:10125000944200D0A0E00122002A00D0B3E0DA7B63
:10126000002A00D0B5E0DC73002C00D1C4E0336864
:101270001B7B9C4200D9BFE0013CF3689C46644460
:10128000237801332370002333617268BFF35F8FCB
:10129000136087F3108800F0D1FA0023002408932C
:1012A00009947268EFF3108972B61368002BFCD0B2
:1012B000BFF35F8F35686C7B002C8FD000D152E775
:1012C0002B7B9C4200D94EE75C4BE7183F01B3688B
:1012D0009C4667443A687B68121A8B41002B00DCFD
:1012E00047E73A687B680B9800F010FB00239846AC
:1012F00000257368BFF35F8F00221A6089F310889E
:10130000002D00D17EE0D0231B06802292035A617B
:101310008021090399619A6153461B022343994630
:1013200041461800A847069007917268EFF31087AE
:1013300072B61368002BFCD0BFF35F8F079B002BA6
:1013400000DA50E7079B002B00DC75E73369002BC0
:1013500000D178E74B4519D100F070FA069A079B47
:1013600012184B41994202D804D1904202D901226D
:101370005242D31700210491013103910294414656
:10138000019100953000FFF721FE7CE72A4B274AA8
:101390009621244800F01EFE002C0ED01A7B9442A9
:1013A0000BD862001219033A19688C46624492788D
:1013B000002A00D150E701224EE7214B214A4D215E
:1013C000214800F007FE214B214A8F211E4800F0E2
:1013D00001FE002A0AD0197B8A4207D851008A18D8
:1013E000033A19688C46624454703CE7144B154A22
:1013F0004D21154800F0EEFD084B0E4A44210948E6
:1014000000F0E8FD002800D045E70CB01CBC904679
:101410009946A246F0BDC046141500203077001052
:10142000F475001054770010887600102C760010A8
:10143000A076001000760010AC760010FFFFFF0FC2
:10144000AC7700109C750010C8770010E87600108B
:10145000C875001010B5054B1868002800D010BDE5
:10146000034B044A3921044800F0B4FD940D0020D8
:1014700098770010DC7500105477001070B50500E7
:101480000E0000F0CFF9280000F0A8FA1249280059
:1014900000F0F4F9182003F065F90400FFF73EFCB2
:1014A0000E4B9C4660448000606022000C49300076
:1014B00000F092FB20601021300003F057F9A0608B
:1014C0000121300003F052F9E0602575AD00054BB5
:1014D000EC50200070BDC046511100104000003497
:1014E000710E00101415002010B5064B1B68002B60
:1014F00000D010BD10210320FFF7C0FF014B186082
:10150000F7E7C046940D0020F0B5C64600B58AB096
:10151000060006920793109F12AB1B7898461F2374
:1015200002AA9446634400221A7016E0002B07D0EA
:101530003168097B8B4203D8591EF068405C2AE071
:10154000384B394A4421394800F044FD002036E048
:1015500001246442E517069407957268EFF310843E
:1015600072B61368002BFCD0BFF35F8F1F2302AA53
:10157000944663440493002303930293119B0193C5
:101580000097069A079B3000FFF720FD0200C3B2C8
:10159000002BCBD100207168BFF35F8F00250D6059
:1015A00084F31088002B37D01F2302A98C46634494
:1015B0001B78002BCAD10102FF2010400843002BEA
:1015C0002CD04346002B29D01199B84704000D00B8
:1015D00003000B431ED000290DDA0698079902007C
:1015E0000B00001BA94104000D008B42B0D8B2D102
:1015F0008242B0D9ACE700F021F924184D41A9424C
:1016000002D804D1A04202D901246442E51706940D
:101610000795A2E7002001E0012040420AB004BC87
:101620009046F0BD3077001000760010547700101F
:1016300070B504004268EFF3108572B61368002B92
:10164000FCD0BFF35F8FCAB22668737B9A421BD16E
:101650000120002848D023698B422DD0090AC9B245
:10166000002A2FD023681B7B9A422BD8531EE06898
:10167000C35C8B422CD000206368BFF35F8F0022D5
:101680001A6085F3108870BD002A0DD0337B9A4212
:101690000AD853009B18033B3068844663449B7808
:1016A000002B07D10020D4E7124B134A4D211348D9
:1016B00000F090FC0120CCE7114B124AE8211248BF
:1016C00000F088FC114B124A44210F4800F082FCC4
:1016D0001100300000F07AFB0028CDD10D4B094AF3
:1016E000EF21094800F076FC23698B42C4D1002326
:1016F0002361C1E7AC7700109C750010C87700101B
:1017000008770010487600105477001030770010EA
:10171000007600102C77001070B584B005000C0026
:10172000FFF798FE002302930193194B00932A00C0
:101730002300FFF7E9FE061E12DC164B5B6A9C4293
:1017400009D8144A926AAA4208D29C4201D00120C8
:1017500002E0002000E0002004B070BD0120FBE7A3
:1017600020BFFFF777FE3100FFF762FF094B5B6A8E
:101770009C4209D8074A926AAA4207D29C4201D0E9
:101780000120E9E70020E7E70020E5E70120E3E7A3
:10179000690E00100040054070B5EFF305833F204F
:1017A00018401038EFF3108472B6194B1B68002BE9
:1017B000FBD0BFF35F8F012319008140154A5163AD
:1017C000154A12781500C5402B4214D0114B5D6AA2
:1017D0008300124E9B599D4206D38300104D5B59E6
:1017E0008A430D490A7007E00A4A031D9B00995875
:1017F0009950002300E00023BFF35F8F044A0021CB
:10180000116084F31088002B00D0984770BDC0464B
:10181000280100D000400540391500202415002083
:10182000580D002010B50100024A0348FFF722FAC4
:1018300010BDC0465C78001037150020044B596A73
:1018400000E01900024B986A5B6A9942F9D170472F
:1018500000400540084B5B6A01E0074B5B6A8B4226
:10186000FBD301E0044B5B6A8B4203D1024B9B6AC2
:101870008342F7D37047C0460040054070B504006E
:101880000D00EFF3108672B61B4B1B68002BFBD0CC
:10189000BFF35F8F002D1CD0200000F0D7FD174B49
:1018A00098420BD01900200000F0D8FD0121200043
:1018B00000F0C4FD0123A340114A1360A400114BA2
:1018C000E550BFF35F8F0C4B00221A6086F310883F
:1018D00070BDA2000B4B0021D1500122A2400A4949
:1018E0000B7893430B700549200000F0E1FD0021C7
:1018F000200000F0A3FDE4E7280100D099170010B4
:1019000038600540580D002039150020F0B5DE463E
:1019100000B584B00600140001921D000293FFF789
:101920008DFF03948D422BD9EFF3108B72B6244BAD
:101930001B68002BFBD0BFF35F8F0124B440214A0A
:101940005463E7B220490B783B430B70331D9B0077
:1019500001999950B3001D4902985850136A2342C7
:101960001AD1136C234211D00020BFF35F8F144BA8
:1019700000221A608BF3108804B004BC9346F0BDBB
:101980008D4201D18442CFD80120F5E7104B114A96
:10199000B221114800F01EFBFFF750FF8D420CD81A
:1019A00002D1039B834208D8064B1C625C63064A43
:1019B0001378BB4313700120D7E70020D5E7C0465A
:1019C000280100D0004005403915002024150020D2
:1019D0008078001040780010A478001010B5EFF364
:1019E000108472B60A4B1B68002BFBD0BFF35F8FCD
:1019F00001238340074A136207490A789A430A7011
:101A0000BFF35F8F024B00221A6084F3108810BD71
:101A1000280100D0004005403915002010B51F29CD
:101A200005D8064B9C4661448900016010BD044BFB
:101A3000044A0A21044800F0CDFAC04640000034B0
:101A4000F0780010E47800101C79001010B5040044
:101A5000FFF764F901002000FFF7E0FFBFF35F8F9D
:101A600010BD10B5FFF7DAFFBFF35F8F10BD10B5E3
:101A700004000120FFF760F901002000FFF7F1FFEB
:101A800010BD000010B500291FD0037B99421CD85F
:101A90004B005B18033B0468A446634400291AD03A
:101AA000002A1ED0914222D0002A26D0047BA242D6
:101AB00023D80468500080180338201881701978E2
:101AC000002920D041701A7010BD104B104A4D21D2
:101AD000104800F07FFA104B104A53310D4800F0C7
:101AE00079FA0F4B0D4A54210A4800F073FA0D4B56
:101AF0000A4A5521074800F06DFA044B044A4D216B
:101B0000044800F067FA1A70DEE7C046AC770010B0
:101B1000E4790010C877001010780010F0790010F8
:101B20001C7800102878001070B506000D00140015
:101B300000290BD0002A12D08068736898470028CB
:101B400006D12A0021003000FFF79CFF200070BD65
:101B5000220029003000FFF795FF2C00F6E70C006B
:101B6000F4E7000010B50023437301338373037B54
:101B7000C3730121037B8B4215D9CBB2002B0CD050
:101B8000027B934209D85A00D218033A0468A4464B
:101B90006244013353700131ECE70C4B0C4A4D2188
:101BA0000C4800F017FA002B09D09B4207D80168B7
:101BB0005A00D318033BCB1800225A7010BD034BB8
:101BC000034A4D21034800F005FAC046AC770010E7
:101BD000E4790010C8770010F8B505000F00160072
:101BE0001021012002F0C2FD0400057347600321AB
:101BF000280002F0BBFD2060A6602000FFF7B2FFC6
:101C00002000F8BD70B50400002901D1080070BDA6
:101C1000002934D0037B994231D84B005B18033B39
:101C20000268944663445A78002AEFD02DD0037B93
:101C30009A422AD853009B18033B006884466344A9
:101C40005D7800205870002925D0237B994222D846
:101C50004B005B18033B20688446634400205870A7
:101C60002000FFF761FF060029002000FFF7CAFFF0
:101C7000020031002000FFF757FF0100C6E7094BC3
:101C8000094A4D21094800F0A5F9064B064A4D21A5
:101C9000064800F09FF9034B034A4D21034800F02A
:101CA00099F9C046AC770010E4790010C8770010AD
:101CB00070B505000C001600002928D02DD0037B3C
:101CC00099422AD84B005B18033B02689446634450
:101CD0005A78002A27D19A78002A2AD11978FFF752
:101CE00091FF0300002E03D1EA7B002A27D1EC7379
:101CF000002B37D1002C49D02B7B9C4246D82A6838
:101D000063001C19033C14190023637070BD224B3F
:101D1000224A3321224800F05DF9224B224A4D210C
:101D2000224800F057F9224B1C4A35211C4800F08C
:101D300051F9204B194A3621194800F04BF9002A75
:101D40000AD0297B8A4207D851008A18033A2968A9
:101D50008C4662445470CAE7124B134A4D21134813
:101D600000F038F9002B0BD02A7B934208D84300AF
:101D70001B18033B2A689446634400229A70B9E713
:101D8000084B094A4D21094800F024F9054B064A41
:101D90004D21064800F01EF94C7A0010047A00101C
:101DA000547A0010AC770010E4790010C877001066
:101DB000887A0010B07A001070B504000A00457BE4
:101DC0002900FFF775FF6073280070BD10B504008F
:101DD000002966D0437B8B420ED0002911D0037BB3
:101DE00099420ED84B005B18033B0268D0188378E9
:101DF000002B0CD1002055E00021FFF7DDFF012072
:101E000050E0294B294A4D21294800F0E3F8002BE6
:101E10001FD0227B93421CD85A00D318033B226860
:101E2000D21813788B421AD0002B1BD0227B9342FE
:101E300018D85A00D318033B2268D21853788B4223
:101E400016D0002BF0D11B4B1B4A63211B4800F01E
:101E5000C1F8154B154A4D21154800F0BBF84378E1
:101E6000137007E0104B114A4D21114800F0B2F8F1
:101E70004378537000238370437000222000FFF7E3
:101E800017FF0200617B814205D02000FFF74CFE66
:101E90006073012006E00A4B074A6921074800F0F9
:101EA00099F8002010BDC046AC770010E47900100E
:101EB000C8770010247A0010187A0010547A0010A5
:101EC0002C7A001070B5234B234A1A60234B244A06
:101ED0001A60244B9A68224B9343FAD1224C01E0BA
:101EE00008CC9847214B9C42FAD300F01FF91B4BBA
:101EF0001F4A1A601B4B9B68DB43DB01FAD11D4B69
:101F000040229A675A671A67DA661B4C03E0200082
:101F1000FFF79CFD0834194B9C42F8D3184CA1687C
:101F2000184DC022280002F033FCA560EFF30383B4
:101F3000FF221A4200D000BEFEF7E0FE00F024FCB3
:101F4000FFF7D2FA104C01E008CC98470F4B9C42A7
:101F5000FAD370BD00E00040BFCDFFFF00F00040AD
:101F6000FE7F3C0000C00040D80B0020E80B0020A2
:101F7000FFFFFF0100F00140D00B0020D80B002034
:101F800000ED00E000000020E80B0020F40B002032
:101F900000BEFDE703000A4A1268002A08D0084A7A
:101FA0001068C318074A934206D2054A1360704767
:101FB000034A05491160F2E701204042F7E7C046B5
:101FC000740E0020000004200818002010B5FFF750
:101FD000DFFF000010B582B00C001900002A0CD001
:101FE000084B002A0BD00192009323000200064800
:101FF00002F0FCFC0120FFF7CBFF044BF1E7034AA2
:10200000F1E7C046D47A0010E47A0010508800103E
:102010000FB400B583B0084802F0B8FC049B002B55
:1020200007D005A90191180002F0BEFC034802F098
:10203000ADFC0120FFF7ACFF147B0010247B0010E7
:10204000F8B5D646474680B5060088461700089A78
:10205000934242D3190E1802089A002301F0B2FCF1
:10206000050073009B199C002B4B9C4664446368DD
:10207000834200D26060331FDBB29A46012B32D913
:10208000C0239B012343802212011A60B300234A1C
:102090009958002905D0506901F04EFC01300138F3
:1020A000FDD17F0123685F40E0231F4080235B0157
:1020B00023431F605246012A21D980239B012343D9
:1020C000802212011A606560B600144B089AF25023
:1020D00001200CBC90469A46F8BD114B114A2E21A6
:1020E0001148FFF777FF4346012BC9D1C0239B015D
:1020F000234303221A60A368DB07FCD5D1E72168DC
:102100004246514003220A401A60A2680123414618
:102110008B401342F9D0D0E7008000406C0D0020C6
:10212000387B0010287B00104C7B001030B583B04A
:102130000C2000F093F8FEF70FFE00280DD00023CE
:1021400004E09900334A344888500133092BF8D908
:10215000304B324A5A6203B030BD314B00229A678D
:1021600000F084F82F4B01221A602D4B5B6C012B81
:10217000FBD12D4B03221A60294B9B6B012BFBD10A
:10218000C0239B01294A1360294A1360294B9A688E
:10219000C0239B019343F9D1022400940633264ABD
:1021A0000121264800F076F800940523244A0121F5
:1021B000244800F06FF8244B0093002202210420F1
:1021C000FFF73EFF214D00952B0000220121052045
:1021D000FFF736FF104C0094230000220021072057
:1021E000FFF72EFF00942300002200210820FFF7B4
:1021F00027FF0A4B00932300002200210920FFF74C
:102200001FFF00952B00002200210620FFF718FF7A
:10221000A1E7C0466C0D0020006CDC021BB700007B
:10222000008000403CB0004030B0004000E0004082
:1022300000F0004000C00040002F685900800240BC
:1022400000389C1C00C00240001BB70040597307B7
:102250008000014BC05870476C0D002080239B000C
:102260001843014BD862704700800540064BAA22F4
:1022700012011A602F22DA60044B054A1A60024BE1
:102280005B68002BFBDA70470040024000600240B0
:1022900000B0FA00F0B5CE4600B582B004001500DB
:1022A0001E0008AB1F7801235B424360002383605C
:1022B00001910C2001F040FB81460199216042010F
:1022C000121A93019B1ADB004B449901280001F07C
:1022D00033FB0200103A98235B009A421FD8731E0A
:1022E000062B22D87B1EDBB2062B1ED8B74222D883
:1022F0002D094D4525D3A060231DC02292011A430C
:10230000212313602368002BFCDA36043B031E43B1
:10231000E6600823136002B004BC9146F0BD0C4B8C
:102320000C4A1A210C48FFF755FE0C4B094A1D2197
:102330000948FFF74FFE0A4B064A23210648FFF7DC
:1023400049FE084B034A27210348FFF743FEC046D6
:10235000987B00108C7B0010B47B0010F07B001089
:102360003C7C0010547C0010074B9B6810308000B0
:102370001950BFF35F8FBFF35F8F044B00211960CB
:1023800082F310887047C04600ED00E0240100D0C1
:1023900010B5091A04394808090B05D14005400D4C
:1023A000044B184380B210BD034B044A8D210448EE
:1023B000FFF710FE00E0FFFF647E00108C7C001031
:1023C000747E001010B5091A04394C08090B08D1A5
:1023D0004905490D064A11430180064B23434380BA
:1023E00010BD054B054A95210548FFF7F3FDC04692
:1023F00000F0FFFF00F8FFFF647E0010987C0010E3
:10240000747E001001238340034A10681840431E65
:102410009841C0B27047C04600E100E0002902D1F7
:10242000034B18607047034B1860034B1860F9E7C3
:1024300080E100E080E200E000E100E010B501236F
:1024400083401800FFF7EAFF10BD0000024B9B68B5
:1024500010308000C058704700ED00E070B50400F7
:102460000D00EFF3108672B60C4B1B68002BFBD0EF
:10247000BFF35F8F2000FFF7E9FF094B984201D0BF
:10248000A84205D1320029002000FFF76DFF70BD82
:10249000044B054A71210548FFF79CFD240100D03B
:1024A000CD0200102C7E0010707C0010747E001095
:1024B000F0B5CE4600B584B001900D00EFF3108664
:1024C00072B65C4B1B68002BFBD0BFF35F8F5A4B7F
:1024D0009A68019C1034A300D758584B9F4200D1F2
:1024E000A4E0AF4200D1A3E00297554BFB1A2F2B7B
:1024F00008D9320039000198FFF736FF04B004BC58
:102500009146F0BD0198FFF77DFF039000210198EF
:10251000FFF794FFBFF35F8FFDF73DFE002801D06A
:1025200084421FD10123029C9C43454AA21A921067
:1025300093009B1819015B1819025B1819045B18AA
:102540005B009C4694440023A168A94212D0062255
:10255000A256002A0DDB53009B189A002300384C2A
:10256000A418F1E78E21374B374A49003748FFF767
:1025700031FD2300A94252D10622A2569146002ADB
:1025800038DB52004A4491002D4B5B189A68A260D8
:10259000DA79E27106229A56A2719B795BB2002B1E
:1025A00012DABD200002A0804B465B004B449A002B
:1025B000234B9B18264A117899714B461370039947
:1025C0000198FFF73BFF94E7201D1D4A8B181A1D49
:1025D0009B88D90A1C2907D15905491502314900A0
:1025E0005118FFF7D5FEDEE71A4B1B4A9B2117480F
:1025F000FFF7F0FC00280DD1002B09D0FF229A71C3
:10260000164A9A80124B1A78A27162461A70D6E75F
:102610000A4FF7E7201D1249FFF7D4FECFE75221FA
:10262000104B094AFF310948FFF7D4FC034F60E71C
:10263000024F5EE7240100D000ED00E0CD02001063
:10264000E0020020007E0010C07C0010747E0010AC
:1026500038150020B47D0010B07C001000BDFFFFD5
:102660001A030020247E001010B5032304009C43AD
:10267000064A9446644422681840C000FC338340F4
:102680009A4381401143216010BDC04600E400E040
:10269000F8B5050001240443304BE31A2F2B2DD845
:1026A000FDF779FD002830D0EFF3108672B62C4B81
:1026B0001B68002BFBD0BFF35F8F2849691A891074
:1026C0008A0052181301D2181302D2181304D31817
:1026D0005B005B18234A926880001258A2421BD00C
:1026E0000022032A32D85100891888001B49091892
:1026F000897949B299421FD00132F2E7B7211A4BCA
:102700001A4A49001A48FFF765FC7221194B174A0B
:10271000FF311748FFF75EFC124A926816491150C4
:10272000164A1178A9711370BFF35F8F0C4B00220A
:102730001A6086F31088F8BD084851008F18BC0055
:102740000419FF27A7710E4AA280E9E7C1210D4BAA
:10275000064A49000648FFF73DFCC046E00200205B
:10276000240100D000ED00E0CC7D0010D47C0010EE
:10277000747E0010F47D0010CD020010381500208A
:1027800000BDFFFF247A001010B5002404E0802172
:102790002000FFF769FF01341F2CF8D910BD7047E6
:1027A00010B5002802D00B684968984710BD002377
:1027B00007E09A00D3185A004B1C03600B789B1853
:1027C000303B01680A78303AD2B2092AF1D91800B0
:1027D0007047F0B5D6464F464646C0B582B00500B4
:1027E0000091904601930A9B99460B9C0C9E0D9B71
:1027F0009B0712D04E460C9B994618E0541C019B37
:1028000000992020A84701372200B742F6D354464A
:102810000C964E460C9B994609E02700A246F4E729
:10282000013C571C305D019B0099A8473A00002CE1
:10283000F6D14E460D9B9B070AD5474605E0541C32
:10284000019B00992020A8472200D31BB342F6D356
:10285000100002B01CBC90469946A246F0BDF0B5EF
:10286000CE46474680B587B0049205930E9E0F9CD6
:1028700010AD2B789946129F139B149DAA071CD468
:10288000002B0CD0EA070AD54A46002A02D10C32A6
:102890002A4204D0013B02E0302232550134BC42CE
:1028A00005D21F2CF8D902E0302232550134EA0754
:1028B00003D59C4201D21F2CF6D9EA0615D56A052C
:1028C00005D4002C03D0BC421CD09C421AD0119AD3
:1028D000102A23D0119A102A28D0119A022A2DD01A
:1028E0001F2C02D83027375501341F2C2FD84A46C9
:1028F000002A29D16A0737D42A0728D52027375537
:10290000013424E0671E002F06D0119A102A01D04E
:102910003C00DCE7023CDAE73C00D8E7AA06D9D461
:102920001F2CD7D8782737550134D9E7AA06D4D534
:102930001F2CD2D8582737550134D1E71F2CCFD8B8
:10294000622737550134CBE72D27375501340395DE
:10295000029301940096059B049AFFF73AFF07B093
:102960000CBC90469946F0BD2B2737550134EEE755
:10297000F0B5C64600B594B0089009910A920B9341
:102980001AAB10CB1B7898461F9D002C01D1102349
:102990009D438027FF002F4016D0002C20D0002719
:1029A00012E0AA061AD54121C918C9B20A39C9B21A
:1029B0007E1C0CABD9551C99200000F0BDFF041EF5
:1029C0000FD01F2E0DD837001C99200000F0B4FF47
:1029D000CBB2092BE5D83033D9B2E9E76121E3E77F
:1029E000002606951E9B05931D9B04931C9B039339
:1029F0004346029301960CAB00930B9B0A9A0999EC
:102A00000898FFF72CFF14B004BC9046F0BDF0B559
:102A1000D6464F4680B599B00C900D910E920F930B
:102A2000209C219D22AB1B789A46249B0A93259BD0
:102A30000B93289B994623002B4303D110334A461E
:102A40009A4391468026F6004B461E4007D023004D
:102A50002B4331D0002637004E4609941BE0370047
:102A60004E46099417E0B20621D54122D218D2B2BF
:102A70000A3AD2B27C1C10ABDA550A9A0B9B099821
:102A8000290000F09FFF09900D000B00034315D0B3
:102A90001F2C0ED827000A9A0B9B0998290000F0DA
:102AA00091FFD3B2092BDED83033DAB2E2E76122EC
:102AB000DCE72700B14603E0002701E02700B1462C
:102AC0004B460693279B0593269B04930A9B0393EF
:102AD00053460293019710AB00930F9B0E9A0D99EA
:102AE0000C98FFF7BCFE19B00CBC91469A46F0BD9D
:102AF000F0B5D6464F4680B595B00890069109923C
:102B000007931C9C1D9E220033002000310001F021
:102B1000D0F9002800D06EE101225242D44B2000AF
:102B2000310001F0C1F9002800D064E101225242D5
:102B3000D04B2000310001F0A1F9002800D05AE16B
:102B4000002200232000310001F098F9002800D075
:102B500066E10B940A968023DB00209A1A40914686
:102B6000131E01D106331E930B9B0A9A100D4005CC
:102B7000400DC1498C4660441203150B0C93BF4BAA
:102B80002B430D9301F0A8F9BD4ABE4B01F034F977
:102B9000BD4ABE4B01F01EF90E900F910022BC4BB6
:102BA0000C980D9901F00DF9BA4ABB4B01F024F9CC
:102BB00002000B000E980F9901F00CF901F0A4F936
:102BC000050001F089F9B54AB54B0C900D9101F063
:102BD00013F90022B34B01F0FDF801F095F907005D
:102BE000B14AB24B0C980D9901F006F90C900D9179
:102BF000380001F071F9AE4AAE4B01F0FDF8020069
:102C00000B000C980D9901F0DCF802000B000E90FF
:102C10000F9101F0F1F810901191A74B9C46674479
:102C20003B050D9300230C930E980F9902000B00A7
:102C300001F0D0F8129013910E9A0F9B0020802182
:102C4000C90501F0BEF80E900F9100229B4B109821
:102C5000119901F0C8F80022994B01F0BBF802006D
:102C60000B001098119901F0BEF80022954B01F06D
:102C7000B1F802000B001098119901F0B4F80200AD
:102C80000B000E980F9901F0A5F802000B001298A6
:102C9000139901F0A8F80022784B01F09BF80C9AE8
:102CA0000D9B01F0A9F80C900D910A0001000E9106
:102CB0000F920B9A0A9B0C980D9901F0F5F80028D9
:102CC00008D0013D00227E4B0C980D9901F08BF845
:102CD0000E900F912B006333C62B00D9A8E0042778
:102CE000209B1B051FD5784A784B0B980A9901F059
:102CF000D3F8002800D1A0E00022754B0B980A9968
:102D000001F0BCF8002800D197E01E9BAB4200DC2C
:102D100090E05D1B6B1E1E938023DB00209A1A43FC
:102D20002092002700251F9B9F4200D391E0DB1BD0
:102D30009A460223209A1A40914603D0002F01D0D0
:102D400000239A46002D07D00E9A0F9B0B980A99E4
:102D500001F049F80B900A91002200232000310075
:102D600001F08CF8002800D076E05A4B209A1340EE
:102D70000493534603931E9B02930B9A0A9B009263
:102D80000193079B099A0699089800F0A5F8002F6F
:102D900041D0209B9B0666D545231C00431C9A46C8
:102DA000079B020006992000089CA047E8172A18F4
:102DB0004240EB0F013F052105910497002103914B
:102DC0000A31029101930092079B52460699200016
:102DD000FFF7CEFD4B46002B1DD00200089D099C3D
:102DE000131B1F998B4241D2561C079B069920202A
:102DF000A8473200F4E7209B04931F9B03931E9B7C
:102E000002932200330000920193079B099A0699CE
:102E1000089800F061F815B00CBC91469A46F0BDD8
:102E20000B9480231B069C46B44463460A9392E6A7
:102E3000052755E700231E936EE71E9B002B00D14C
:102E400071E74B46002B00D16DE71E9B013B1E93A3
:102E500069E700239A466CE70A99802000068446B9
:102E600061440A9181E765231C0097E71000D2E7CF
:102E7000FFFFEF7FFFFFEFFF01FCFFFF0000F03FD0
:102E8000FB799F501344D33FB3C8608B288AC63F59
:102E90000000F83F61436F63A787D23F71A37909B0
:102EA0004F930A400000E03F1655B5BBB16B02409E
:102EB000EF39FAFE422EE63FFF03000000002C40EF
:102EC00000002440000018402D431CEBE2361A3F5E
:102ED00080842E41FFF7FFFFF0B5D646474680B508
:102EE00097B00690079108920993209F1E9A1F9B06
:102EF0001000190000F0DDFF00282AD10122524203
:102F0000BB4B1E981F9900F0B9FF002830D1012259
:102F10005242B84B1E981F9900F0C6FF00283AD0C5
:102F20000423229A134032D0B34A002B31D1032319
:102F3000229903912199029101930092099B089A89
:102F400007990698FFF745FC17B00CBC90469A46C7
:102F5000F0BD229B0393219B029303230193A74B74
:102F60000093099B089A07990698FFF732FCEBE754
:102F7000229B0393219B029304230193A04B009374
:102F8000099B089A07990698FFF723FCDCE79D4AFE
:102F9000CBE70423CCE700229B4B1E981F9900F03F
:102FA00083FF002817D10022984B1E981F9900F02C
:102FB00065FF00280FD1002200231E981F9900F002
:102FC0005DFF002817D100239A46229B5B0500D4A1
:102FD0007DE000261FE0229B0493219B0393029730
:102FE0001E9B1F9C00930194099B089A07990698C1
:102FF000FFF77EFDA8E71E9A1F9B0020002100F02E
:10300000E0FE1E901F9101239A46DEE70EAB3022B0
:103010009A55013F01361F2E01D8092FF6D81E9868
:103020001F9900F071FF040000F056FF02000B0032
:103030001E981F9900F0C5FEFA00754B9B181A6880
:103040005B680C920D9300F0D7FE0A900B9100F094
:103050007FFF050000F03CFF02000B000A980B996F
:1030600000F0AFFE0A900B9100226A4B00F01CFFAB
:1030700000282ED00135280000F02AFF02000B00A6
:103080000C980D9900F000FF002801D001340025B4
:10309000002F2CD1200000F01FFF02000B001E9813
:1030A0001F9900F08EFE00225A4B0A900B9100F0FF
:1030B000E5FE002841D10022564B0A980B9900F0FA
:1030C000F3FE002839D1E30737D5013435E0062770
:1030D0007FE700224F4B0A980B9900F0CFFE0028A3
:1030E000D6D1002D01D0EB07D2D50135D0E70A9417
:1030F0001F2E10D8013F0A21280000F01DFC741C6F
:1031000030310EAB99550A21280000F015FC051E40
:1031100025D02600ECE70A9C04E00EAA3021915548
:103120001F0001361F2E02D87B1E002FF5D11F2E47
:1031300003D80EAB2E229A5501361F2E14D80A2121
:10314000200000F0CDFB751C30310EAB99550A21E3
:10315000200000F0C5FB041E05D02E00EDE7A046C0
:103160000A9C4646DEE72E000323229A1340012BD9
:1031700016D01F2E06D85346002B28D00EAB2D227A
:103180009A550136229B0393219B029301960EAB25
:103190000093099B089A07990698FFF71AFBD3E654
:1031A000219B002B0DD05346002B02D10C33134230
:1031B00007D0219B013B219303E00EAB30229A55AF
:1031C0000136219B9E42D4D21F2EF6D9D1E7229BF5
:1031D0005B0704D50EAB2B229A550136D2E7229B12
:1031E0001B07CFD50EAB20229A550136CAE7C04641
:1031F000FFFFEFFFFFFFEF7F908000109C8000102B
:10320000A08000109880001065CDCD4165CDCDC166
:10321000A88000100000E03FF0B5DE4657464E465D
:103220004546E0B595B006000B91150013930029B3
:1032300000D1FCE20027139B1878002800D1F8E2A7
:10324000252809D07C1C2B003A000B99B047139B12
:10325000013313932700EEE70133139300241DE09D
:103260000B00303BDBB2092B37D92A293AD0002397
:103270009A46139B1A782E2A44D000230C93139A53
:103280001378683BD9B2122900D980E08B00D0496D
:10329000CB589F4601231C4301321392139A117895
:1032A0000B00203BD8B21028DAD88300C948C35895
:1032B0009F4602231C4301321392EFE704231C4371
:1032C00001321392EAE708231C4301321392E5E727
:1032D00010231C4301321392E0E713A8FFF767FAAB
:1032E0008246C6E71E9B1A1D1E921B68002B04DB3C
:1032F0009A46139B01331393BBE7022214435B42AC
:103300009A46F6E78022D20014435A1C13925A7848
:103310001300303BDBB2092B04D92A2A07D0002343
:103320000C93ACE713A8FFF742FA0C90A7E71E9B9B
:103330001A1D1E921B68002B04DB0C93139B013398
:1033400013939CE70023F8E780235B002343511C81
:10335000139152786C2A01D01C0018E0C0239B0006
:103360001C430131139112E080232343511C13911C
:103370005278682A01D01C0009E0C0231C430131A7
:10338000139104E080235B001C4301321392139BD2
:1033900018780300253BDAB2532A00D93DE29300A6
:1033A0008D4AD3589F4680239B001C4301321392C1
:1033B000EDE780235B001C4301321392E7E7782896
:1033C0000AD058283BD06F283CD062283DD010232B
:1033D0009C43063B9C4601E010239C46582837D06E
:1033E000692803D0642801D00C229443630501D5D9
:1033F0000122944369282ED064282CD0A30500D53F
:10340000A5E0E30500D5BFE0630600D4D2E01E9A34
:10341000111D1E911168FF220A4005945346049322
:103420000C9B0393634602930023019300922B00AD
:103430003A000B993000FFF79BFA07002BE01023AE
:103440009C46CBE708239C46C8E702239C46C5E779
:1034500020221443C4E7A30521D4E30551D4630615
:1034600068D51E9A111D1E911168FF220A40D317BC
:10347000D1185940D20F0594534604930C9B0393E3
:1034800063460293019200912B003A000B993000A1
:10349000FFF76EFA0700139B01331393CBE61E9BD5
:1034A000DA1D07218A43110008311E911168536803
:1034B0009846DB1710931193109A119B1000484007
:1034C0000E901900404641400F910E980F99801AB6
:1034D00099410E900F914346DA0F08945346079393
:1034E0000C9B06936346049300230593029200907D
:1034F00001912B003A000B993000FFF788FA070082
:10350000C9E71E9A111D1E911268D317D118594090
:10351000D20F0594534604930C9B03936346029386
:10352000019200912B003A000B993000FFF720FA2E
:103530000700B0E7230605D51E9A111D1E91002332
:10354000D25E94E71E9A111D1E9112688FE71E9B92
:10355000DA1D07218A43110008311E915368126851
:103560000092019300220894534607930C9B069304
:1035700063460493059202922B003A000B993000A7
:10358000FFF745FA070086E71E9A111D1E91136882
:1035900000930594534604930C9B03936346029354
:1035A000002301932B003A000B993000FFF7E0F95C
:1035B000070070E7230606D51E9A111D1E9112689A
:1035C0001204120C29E71E9A111D1E91126824E79D
:1035D000B07E0010FC7E0010407F001046281AD0FC
:1035E0001E9B0733072293431A0008321E921A6863
:1035F0005B68009201930494534603930C9B0293DF
:103600002B003A000B993000FFF766FC0700139B74
:10361000013313930FE620231C43E1E7672801D011
:10362000472802D180231B011C43452801D047288D
:1036300001D120231C431E9B0733072293431A000A
:1036400008321E921A685B680092019304945346F4
:1036500003930C9B02932B003A000B993000FFF769
:1036600047FA0700139B01331393E4E50223234039
:10367000994622D0012398461E9B1A1D1E927C1C3F
:1036800018782B003A000B99B0474B46002B1AD103
:10369000139B013313932700CDE5571C0C9B0B990B
:1036A0002020A84723003A005C1C9E42F5D8B24671
:1036B0001700A0462E000C9DDEE701233A000C9572
:1036C00035005646F0E7220043460C953500564635
:1036D00006E0571C0C9B0B992020A84723003A00BA
:1036E0005C1C9E42F5D814002E000C9DD0E71E9B5A
:1036F0001A1D1E921B689B460C9B002B21D1012298
:1037000052425B4601E001330A001978002902D0D9
:10371000511E002AF7D15A469B1A98468023DB0097
:103720002340994603D00C9B984500D99846022324
:103730002340129307D03A005C4637004E460D9561
:103740001FE00C9ADDE73A004346370056460D95D8
:1037500006E0551C0D9B0B992020B84723002A003A
:103760005C1C9E42F5D8B2463E00A0465C4637003F
:103770004E4606E00C930134551C0D9B0B99B8473F
:103780002A002078002805D0002EF4D00C994B1E7A
:103790000029EFD13E0017000D9D129B002B03D195
:1037A000139B0133139346E543460C95350056466B
:1037B00006E0571C0C9B0B992020A84723003A00D9
:1037C0005C1C9E42F5D817002E000C9DE8E72123D3
:1037D00023431E9A111D1E9112680092059308231F
:1037E00004930C9B039310230293002301932B005B
:1037F0003A000B993000FFF7BBF80700139B013329
:10380000139318E57C1C2B003A000B992520B04738
:10381000139B0133139327000DE57C1C2B003A000A
:103820000B99B047139B01331393270003E5094E0F
:1038300000E5AF420CD36A1E2B000B990020B04765
:10384000380015B03CBC90469946A246AB46F0BD48
:103850003A00F1E79F27001000B585B00290039170
:103860000121009313004A4202A90248FFF7D4FC49
:1038700005B000BDA127001001480421014B1847E5
:1038800030030020A938001010B5010018231B8850
:1038900014221088984710BD10B5010018231B880A
:1038A00016221088984710BDF0B5C64600B507002F
:1038B0000E0000250123984600E00135B5420AD2EA
:1038C000AC003C192068FFF7DFFF20600028F4D12E
:1038D00000239846F1E7404604BC9046F0BD000046
:1038E000144A936F9B0815D29066D166002905D0C3
:1038F000FFE7FFE7FFE7516F106F704704B58021C6
:103900000906C2175140002800D0C84303F0BCFD8F
:10391000002104BD936F5B08FDD3F0B5946ED56EA6
:10392000576F166FFFF7E0FF9466D5665767166707
:10393000F0BD0000000000D0134A936F9B0813D223
:1039400010665166002905D0FFE7FFE7FFE7516FDA
:10395000106F704704B5002801D00020C04303F069
:1039600093FD002104BDC046936F5B08FDD3F0B505
:10397000946ED56E576F166FFFF7E2FF9466D566AB
:1039800057671667F0BD0000000000D094464E4A0D
:10399000926F9208624601D230E0C046F0B54A4EBE
:1039A000B56F6D08FCD3346E756E776F366F00F0AF
:1039B00025F89446444A146655665767166762466A
:1039C000F0BDC0469446404A926F9208624601D2CA
:1039D00058E0C046F0B53C4EB56F6D08FCD3346E70
:1039E000756E776F366F00F04DF89446364A146660
:1039F0005566576716676246F0BDC046002B24DB4C
:103A000011D000293EDA00B5C943404200D101314E
:103A100000F038F8C943404200D10131DB43524243
:103A200000D1013300BD002AEBD1002801D10029CB
:103A300005D00020C90FC90701D1C043410800B516
:103A400003F01AFD0022002300BD00B500290ADBA7
:103A5000DB43524200D1013300F014F8C943404225
:103A600000D1013100BDC943404200D10131DB43E7
:103A7000524200D1013300F005F8DB43524200D13D
:103A8000013300BD002923D1002B18D1002A0CD00E
:103A9000BC460D4F38667A6600210023FFE7FFE73A
:103AA000FFE77A6F386F67467047002801D00748F4
:103AB000010000B503F0E0FC0022002300BD02007D
:103AC0000B00002000217047000000D0FFFFFFFF27
:103AD000002B00D0BDE0130C26D1002AE7D080B423
:103AE000104F39667A66FFE7FFE730B4040C7B6F4E
:103AF000396F1B0423433B66FFE7FFE7FFE7C04640
:103B000084B27B6F3D6F1B0423433B66FFE7FFE7F7
:103B1000C04600232C042D0C7A6F386F00196941C0
:103B2000B0BC7047000000D0F0B594460025140EDC
:103B300001D112020835140F01D112010435940F7E
:103B400001D192000235D40F01D152000135D40BBE
:103B50000134254F7C66254C3C660E0C93B2FFE782
:103B6000FFE7FFE73C6F6643360C7703BE467343BF
:103B7000DF0B5B04C01AB941130C7343DB18C91A7D
:103B8000CE086643360CB64493B273431F0F1B0135
:103B9000C01AB941130C73431F0B1B05C01AB9415E
:103BA000860D8F023E436643360C092D24DB520AF4
:103BB0007243801A7703460A6643360C16235B1B52
:103BC000DE40DF40BF1964466643821B7046043501
:103BD00006330100D940A840C01900D30131A242E8
:103BE00006D20023F0BD0000000000D0FFFFFFFF61
:103BF000121B0130F3D3F1E709277F1BFE40644617
:103C0000A2B27243801A00D20139220C7243130C03
:103C10001204821A99410B007046043513370100D3
:103C2000F940A840801900D30131002B02D1A242F3
:103C30000AD2F0BD013000D30131121BFAD2013B90
:103C4000F8D1A24200D2F0BD013000D30131121BE5
:103C5000F7E7F0B51C0C00D080E00CB400251C0A7E
:103C600004D11B02160E3343120208351C0B04D17B
:103C70001B01160F3343120104359C0B04D19B002A
:103C8000960F334392000235DC0B02D192185B4150
:103C900001351C00971864410134464F7C66464C40
:103CA0003C660E0CFFE7FFE7FFE7C0463C6F66434C
:103CB000360C7703BE4697B27743C01B00D201395A
:103CC000C01B00D201399FB27743C91BC91B170C17
:103CD00077437E04FF0B801BB941CE086643360C48
:103CE0000C2D33DBB644120B1F053A431B0B97B266
:103CF0007743C01B00D201399FB27743C91B170C11
:103D000077433E043F0C801BB941860D8F023E4332
:103D1000664329277F1BFE400C3D7746AF40BF1905
:103D200030BCA2B2ABB272437343801A9941220CE9
:103D30007243130C1204801A994102000B000137E0
:103D4000001BA941F9D2781E0021F0BD0C277F1B72
:103D5000FE4077467F0BAF40FF19E0E700245D1C73
:103D600007D0144F7D663966FFE7FFE7FFE7FFE7FF
:103D70003C6F95B29EB265436643401BB141150C42
:103D80001E0C6543664336042F0C3E432D04401B36
:103D9000B141994204D202000B0020000021F0BD85
:103DA00001D19042F7D3801A994101349942F2D35C
:103DB000F6E70000000000D0FFFFFFFF4840414051
:103DC000484018B4114B5B68FC46019308BD04DF02
:103DD0005B40001018B40D4B1B68FC46019308BDF6
:103DE00000DF6540001018B4084BDB68FC46019307
:103DF00008BD0CDF1D43001018B4044B9B68FC4643
:103E0000019308BD08DFC1410010000040150020EB
:103E1000FFB550404240504059404B40594000E0AF
:103E2000FFB5154F4C00640D03D0BC4204D10C0308
:103E300014D80020090D09055C00640D03D0BC42B4
:103E400004D11C030AD800221B0D1B0501264B4080
:103E500009D44B4003D58B4200D18242FFBD994229
:103E6000FCD19042FFBD0B43DB1803431343F5D055
:103E7000C9434918FFBD0000FF07000000B5FFF768
:103E8000CFFF804100BDC04600B5FFF7C9FF01D993
:103E9000002000BD012000BD00B5FFF7B9FF01D92A
:103EA000002000BD012000BD00B5FFF7B1FF80413B
:103EB00000BD012040054A00121804D85A0012180B
:103EC00001D8002070470120704700207047000093
:103ED0000021002805D17047C1174840401AFAD088
:103EE000C90713B5064B1B6898470CBC441CA2407D
:103EF0001005120B0349091B09051943114310BD95
:103F0000401700201F04000010B54C00620D8023F4
:103F1000D218DB00D21A5B057E2A10DD9E3A13DA36
:103F2000CC170903490819435242D14064000134B7
:103F30001532202A05DAD0400843604310BD002026
:103F400010BD0846604310BDC80FC018013810BD31
:103F500018B4044B5B6AFC46019308BD24DF494555
:103F6000001000004015002070B513231C78012CB0
:103F70000FD0012C0FDC022C02DC1D4A1D4B9A6471
:103F800070BD99001A481B4A885001331F2BF8D97D
:103F9000EFE70023FAE71848FFF77EFC0500174813
:103FA000FFF77AFC023803789B007F2B19DD802213
:103FB0002900104800F0ECFB022CDCD1104B1A88D1
:103FC000B5231B029A4209D10E4B1A880E4B9A4216
:103FD00004D10E4B1A880E4B9A42CCD00020FEF72B
:103FE00017F80C4B0C4A30210C48FDF7F3FFC04684
:103FF00021400010401500205344000053460000AB
:1040000054380000D8380000494600009C380000B1
:1040100059460000F88000109C8100105881001063
:1040200007B56046002800D100BE01880A0A0230A8
:10403000DF2AFAD1C9B2820804D30288408800047A
:10404000104300E00068024A5050039007BD000092
:10405000401500200FB403BC0CBCF0B50124E407EC
:10406000634000E0F0B50C0DCF0F661E3605891BCE
:10407000640503D3C943404200D30131640D03D02A
:10408000661CF60A07D0E41B00207F00791C890714
:104090008912803C24031D0DDF0F6E1E36059B1B0D
:1040A0006D0503D3DB43524200D301336D0D03D0C2
:1040B0006E1CF60A07D0ED1B00227F007B1C9B07BD
:1040C0009B12803D2D032F1B661B58D4A446202E27
:1040D00046DA20371400BC401D00BD40F240334199
:1040E0002A4380185941CB0F05D0C943C043002251
:1040F00064425041514162464D0D28D10D0D07D10A
:1041000000281FD0241940414941013A0D0DF9D032
:10411000640006D3013000D30131002C01D14008E6
:104120004000013A0BD4941CE40A04D11205114456
:10413000DB071944F0BDD907204B194300E0D9072C
:104140000020F0BD0029DDD1002CDBD1F0BD013213
:10415000C6074008CD0728434908002EE1D0D9E71B
:104160003C2E29DA203E40371400BC4000D0012408
:10417000F24014431A00BB401C43D317ACE7AC46D3
:10418000202F08DA20360400B4400D00B540F84076
:1041900039412843A5E73C2F0CDA203F4036040084
:1041A000B44000D00124F84004430800B1400C435F
:1041B000C117EAE710001900002494E70000F07F1F
:1041C000F0B50C0D661E3605891BE60A6405640D04
:1041D00002D0651CED0A04D0002001210905803CB5
:1041E0002403A4461C0D671E3F05DB1BE70A64057C
:1041F000640D02D0651CED0A04D0002201231B05CA
:10420000803C24037740644497B484B296B27443EC
:10421000070C7E43150C6F4380B26843361802D3F7
:10422000012000043F183004350C00197D418446FC
:1042300088B29AB250430C0C62431F0C7C438EB27E
:104240007E43921902D301263604A4191604170CD2
:104250003618674101BC81B29AB25143040C6243E3
:104260001B0C5C4380B25843121802D30120000497
:1042700024181004130C401863412D185E410020CF
:10428000474106BC88B293B258430C0C6343120CEE
:10429000544389B251435B1802D3012109046418C5
:1042A00019041A0C091862416D1856410020474143
:1042B00018BCF902720D1143F0026A0D1043ED02B1
:1042C0000A0D03D16D1940414941013B124E9B1B20
:1042D0007600B3420ED26D0007D301300026714143
:1042E0006646354301D1400840001B05C918E40764
:1042F0002144F0BD0BDA013306D1013004D1013184
:104300004F0D01D04908F2E7E1070020F0BD01366A
:1043100031050020EBE70000FF030000F0B51C0DA5
:10432000671E3F05DB1BE70A6405640D02D0661CAF
:10433000F60A04D0002201231B05803C2403D0256B
:104340002D060026F6432E661E096E66CE0FF61960
:10435000B44649004F0D02D07E1CF60A03D000205F
:104360000021403F3F033E1BB600B444013F7F05A0
:10437000C91B49082E6F013676089C02950D25430E
:104380007543ED137543AD1301356D10F603761BC0
:104390000CB4CC02450D2C43A2B2B3B25A43270C45
:1043A0007B43350C6F43A4B26C431B1902D3012429
:1043B00024043F191C041D0CA4187D4124196D41CF
:1043C000009A91B2ACB26143170C7C432B0C5F4353
:1043D00092B25A43A41802D301221204BF18220435
:1043E000230C52187B41019C6C431B19520ED901BE
:1043F0000A434401A01A81B2B2B2514303145A4392
:10440000360C734387B27743D617D21900277E4103
:1044100036049B191704160C7F185E417316ED18AD
:10442000F301002680337541A90F06D16400690AA3
:10443000E8055B0A184309D22FE004229444803334
:104440007541A90AA8059B0A184326D34041494152
:104450002404009A019B0D005543641B4343E41A56
:1044600095B286B27543170C7E43030C5F4392B23C
:104470005A43B61802D301221204BF183204330C77
:1044800052197B4152429C41002C02D4002201303F
:1044900051414008CA071043490802B06246D70795
:1044A0009210084BD218084B9A4203D21205891871
:1044B000C919F0BD0020002A01DC3900F0BD01332C
:1044C0001905F5E7FD030000FE070000624618CA63
:1044D000944600291ADAC01861415B463B415C46AC
:1044E000B4405246FA40224344464D4662416B4135
:1044F000904699462B46B3403D41FC401C435246F2
:104500005B46A241AB4192469B467047C01AA1410F
:104510004B463B414C46B4404246FA402243544647
:104520005D4662416B4192469B462B46B3403D41FE
:10453000FC401C4342464B46A241AB419046994643
:104540007047002000217047002200B5203200F0A3
:1045500004F8080000BD000000220B15F1D410B5CE
:10456000944600F02FF81414013400DA0021CB1720
:10457000134C20476244343A0CD40C2A07DA040066
:104580009140904052422032D440214310BDD84344
:10459000D94310BD203207D40C46944052422032F9
:1045A0001141D040204310BD0800C917203203D468
:1045B00052422032104110BD1800190010BD0000F9
:1045C000754500100A0DCC0F531E1B05C91A520564
:1045D00003D3C943404200D30131520D03D0531CD1
:1045E000DB0A07D0121B00206400611C89078912B6
:1045F000803A1203014BD21A70470000FF030000FB
:1046000051434343C9188C46110C83B24B4310B439
:10461000040C614392B280B2504362431C041B0CF1
:10462000001910BC59411304120CC01851416144C7
:104630007047000070B513231D782A48FFF72CF946
:104640000400012D11D0012D09DDA31E1B789B0054
:104650007F2B40DD80222100234800F099F8234879
:10466000FFF712F9224B186070BD542201001E485A
:1046700000F08EF81F4B1A881F4B9A421CD1A723BB
:104680009B011A881D4B9A4216D11D4B1A881D4B4F
:104690009A4211D11C4B1A8894239B019A420BD148
:1046A0001A4B1A881A4B9A4206D11A4B1A681A4B9F
:1046B0009A4201D1152307E01848FDF7A9FC99009B
:1046C0001748094A885001331F2BF8D9144A064B62
:1046D0001A62DA61B7E7134B134A42211348FDF718
:1046E00079FCC04653460000401600204C330000C1
:1046F00040170020EE290000C40F0000C20D00008A
:10470000962B0000C0B50000182B0000CC2A00003A
:1047100010B50000FC2C000051ED8764508800109B
:1047200031470010B081001028820010E481001091
:1047300007B56046002800D100BE01880A0A023091
:10474000DF2AFAD1C9B2820804D302884088000463
:10475000104300E00068024A5050039007BD00007B
:104760004016002010B502F02FFA10BD10B502F06F
:10477000F3F910BD01480421014B18474003002004
:10478000A9380010014B1B681847000040030020A7
:10479000014B5B681847000040030020F8B5060095
:1047A0000D001700437C002B23D103681100280063
:1047B0009847F8BD337C10E00221174833689847CA
:1047C000601C0134BC4217DA002CF3DD2B19013BCD
:1047D0001B780D3B5A425341DBB22A5D0A2AF0D1C5
:1047E000002BEED1A042E7DA211A28183368984747
:1047F000E2E700240020E5E7B84203DA391A281876
:1048000033689847002FD4DDED19013D2B780D3B1F
:104810005A4253413374CCE79082001070B50500C2
:104820000368002B16D00C4B1C6805E0291D2A6874
:104830002000FFF7B3FFE468002C09D02368002BA9
:10484000F9D0064B1B68002BF0D0A342F3D1EDE763
:1048500000232B6070BDC046980D00209C0D0020E9
:1048600070B505000C000B68802B05D023685A1C1E
:104870002260E418257170BD0800FFF7CFFFF5E74F
:1048800010B582B0D0231B061C6801A9064802F0AF
:1048900003FE002806D1019BA34203D0024802F088
:1048A0000BFE012002B010BDD00B002010B5024855
:1048B00002F0DAFD10BDC046D00B0020F0B585B087
:1048C00001900D001600FFF7DBFF07006B1C02D004
:1048D000164B1C6805E0019802F058FC0500F7E74C
:1048E000E468002C18D02368002BF9D0104B1B680B
:1048F000002B01D0A342F3D12A0001992000FFF739
:104900004DFF002EECD002ABD91D0A230B70012203
:104910002000FFF743FFE3E7002F04D1681E854125
:10492000E8B205B0F0BDFFF7C1FFF7E7980D002032
:104930009C0D00200C4B1A681300002B0BD08342F7
:1049400002D01A00DB68F8E7002903D1DB68D360E6
:104950000023C36070470029FCD0002A01D0D0603A
:10496000F8E7014B1860F5E7980D002010B5064BED
:104970001C6800E0E468002C04D06368002BF9D0C8
:104980009847F7E710BDC046980D002070B50500A8
:1049900002F0FCFB0400012201002800FFF78EFF5B
:1049A000FFF7E4FF200070BD70B5A2B004000E0058
:1049B000FFF766FF05008422002101A8FFF7E2FE51
:1049C0003300220001A90848FEF746FF040001A8B1
:1049D000FFF724FFFFF7CAFF002D02D1200022B00D
:1049E00070BDFFF763FFF9E7614800100FB400B531
:1049F00083B004A901C90191FFF7D6FF03B008BC39
:104A000004B01847F0B583B0002506E06B469A1D48
:104A100014700024002C19D00135A94220D9445D1E
:104A2000104B00229B5EA342F0D16B46DA1D0D2392
:104A300013700026002EE9D10B4B9B699B06FBD41B
:104A40001778094B1F6001360132F3E7064B9B696B
:104A50009B06FBD41678044B1E6001340132D9E763
:104A600003B0F0BD3C1500200040034070B582B09B
:104A7000060000200BE0451C301800226B46DC1DB0
:104A8000002A0ED06B4607331B780370280088423B
:104A900003DA0A4B9B69DB06EDD500280BD002B088
:104AA00070BD064B9B69DB06FBD4044B1B6823706F
:104AB00001320134E4E70338F1E7C0460040034027
:104AC00070B515001C00FCF78DF96B1C0AD1631C36
:104AD00003D002212000FCF76BF801210448FFF706
:104AE00029FF70BD02212800FCF762F8EFE7C046FD
:104AF0005003002010B5064B1B78064B1B78E121B4
:104B00000123002249020448FFF7DAFF10BDC04626
:104B10001489001018890010004003407F220240D1
:104B2000C3093420584368235343C018014BC018AD
:104B30007047C046780E002010B582B001AB00224D
:104B40001A7080325A70002408E001AB185DFFF73C
:104B5000E5FF01234371002303750134012CF4D9CF
:104B600002B010BD10B5C36A402B00D840231649CF
:104B70000A680261D3180B60990604D03F218B4369
:104B8000403311490B60104B19688B0610D10F4B45
:104B90005A404B40802149018B420FD83023C35CDF
:104BA0009B061A43A0231B061A4383681A6010BD94
:104BB000074B084A59210848FDF70CFA074B054AEC
:104BC0005B210548FDF706FAF8140020000010509C
:104BD000B0830010D4820010E083001030840010F5
:104BE000F8B504007F2008404FB2FE0F21716670B7
:104BF000FD43ED0FE570A070002823D10121617104
:104C0000012B21D0402A26D8E2623022A354002E64
:104C100025D0C3001A4A94466344E360E368002247
:104C20001A60A378002B20D0002F22DB0138C000AF
:104C3000144B9C466044A0602000FFF793FF0123C3
:104C40002370F8BD0021DAE70F498A42DCD9110050
:104C50000E48FDF7DDF911000C48FDF7D9F9C30046
:104C60000B4A94466344E360D8E7A360094B236191
:104C7000E5E70138C000084B9C466044A060DBE7D4
:104C8000800010500C001050FF03000064840010DE
:104C900084001050000110500800105070B504003E
:104CA0000D001600FFF73AFF33002A002100FFF73E
:104CB00097FF70BDF0B5CE46474680B583B0264B12
:104CC0009B6D9846002701240AE0244B244ADF21EB
:104CD0002448FDF77FF94346A34398466400013713
:104CE0004346002B33D01F2F31D843461C42F5D00A
:104CF000194BDB6D1C42E8D11B4B9C657B080126E0
:104D00003E4072425641F6B2FF221A409146342587
:104D1000754368235343ED18144BED18280000F039
:104D2000C7FA0028D7D034235E4334334A4653436E
:104D3000F6180E4B9E19F269317901230093002376
:104D4000002000F039FE280000F0F4F9C3E703B0BA
:104D50000CBC90469946F0BD00001150BC84001078
:104D6000E8820010E083001000301150780E00201F
:104D700070B51B4A9823D458E30307D40025E306F3
:104D800012D4E30415D4A54225D170BDFFF7D4FE9B
:104D900001221449002000F0F5FD134B80229202FD
:104DA0001A6580256D02EAE710231D43FFF782FF95
:104DB000E7E700230D4A1370094A136080235B0163
:104DC0001D4301220121002000F0C8FD064B802276
:104DD00012031A65D7E7290061400548FDF718F965
:104DE0000000115000001050003011503615002006
:104DF000A884001070B50C0015001E00FFF78EFE91
:104E000033002A00210000F07FFA70BD10B5FFF7D3
:104E100093FE0123002200218020FFF7EBFF10BD4D
:104E200010B50400037D002B11D18378002B05D130
:104E30004378002B12D00122094B9A66802212017E
:104E40000849200000F080F90123237510BD84215A
:104E5000054B064A49000648FDF7BCF80222EBE77D
:104E600000201150FFF7FFFF8C840010008300101A
:104E7000E083001010B5FFF751FEFFF7D1FF10BD22
:104E800010B504008378002B05D14378002B0AD09D
:104E90000122064B9A6600220549200000F054F9D1
:104EA0000023237510BD0222F3E7C04600301150E5
:104EB000FFF7FFFF10B5FFF731FEFFF7E1FF10BD71
:104EC00010B5002804D101210520FDF7B7FA10BD67
:104ED0007E21034B034AFF310348FDF77BF8C046B0
:104EE0009C84001020830010E083001010B500287F
:104EF00004D1064B1970FFF789FF10BDC521044B83
:104F0000044A49000448FDF765F8C04636150020FC
:104F10009C84001030830010E083001010B500283E
:104F200004D1064B80225202DA6410BDD221044B18
:104F3000044A49000448FDF74DF8C04600201150CE
:104F40009C84001040830010E083001010B5041E04
:104F500028D100F0C7F817490520FDF77FFAD022C5
:104F6000D20000211448FFF70DFC144B00221A70E8
:104F7000134B144A1A60002240210020FFF78EFED6
:104F8000002240218020FFF789FE0F4B01221A6486
:104F900080229205DA6490220C4999502000FFF794
:104FA000BDFF10BD60210A4B0A4AFF310A48FDF7D8
:104FB00011F8C046714D0010780E00203615002003
:104FC000F814002080011050000011501010010052
:104FD0009C84001014830010E083001010B500289A
:104FE00008D10B785B0602D14B78052B09D0FFF76F
:104FF000A3FD10BDB021054B054AFF310548FCF764
:10500000E9FF054B1A78054B1A60F0E79C84001005
:105010004C830010E0830010361500200000115072
:1050200010B50C0000280DD10979627907231340CF
:105030001B021943E2789207920FA078FFF72EFE29
:10504000012010BDC021034B034AFF310348FCF788
:10505000C1FFC0469C84001068830010E0830010EC
:1050600010B50C0011001A00002805D10123200002
:10507000FFF7C0FE012010BDE321034B034A4900A6
:105080000348FCF7A7FFC0469C84001078830010FB
:10509000E083001010B5002803D10800FFF7EAFEF6
:1050A00010BDD021024B034AFF310348FCF792FFA9
:1050B0009C84001088830010E083001010B5002845
:1050C00003D10800FFF7F6FE10BDEB21024B034AA7
:1050D00049000348FCF77EFF9C8400109883001071
:1050E000E083001010B580235B040D4A13600D4A65
:1050F00013600D4B9A6880235B049343F9D10B4CEA
:105100009C2200212000FFF73DFB8022520100215C
:105110000748FFF737FB092363670333A36710BD15
:1051200000E0004000F0004000C0004000001150CE
:1051300000001050002303754375322283548361AD
:10514000C36103628362704710B5002902D0C3684F
:105150001B681940002A0FD0114353050CD5C268B3
:1051600013685B050BD40A4B0B401360FFE7FFE7A6
:10517000FFE7FFE7FFE7FFE7C368196010BD81782D
:1051800043789B00034A9A580348FCF741FFC04606
:10519000FFFBFFFF64030020F484001070B50400DF
:1051A000056A8022D2002A43C378002B14D0637989
:1051B000002B1ED0802189010A4301214B406371DD
:1051C0002423E35C002B02D08023DB011A4300215F
:1051D0002000FFF7B9FF70BD836AC269944663443B
:1051E00019002A000069FFF7D3FA842212022A4329
:1051F000DDE70021E0E770B504000E001500437DF7
:10520000002B18D1A5610023E3612B1CAAB2402A10
:1052100000D940239BB2236201226275A662ED1A77
:105220006B425D412423E55401330022E254200007
:10523000FFF7B4FF70BDFFF77DFFE3E770B5040033
:10524000C3681B689D05AD0DC278002A13D11B04ED
:105250000BD4C3695B19C361E378002B04D0236AC4
:10526000AB4201D9E369A36170BD0D4B0D4ABF216B
:105270000D48FCF7AFFE1B040CD5836AC269944647
:10528000634418002A002169FFF782FAE3695B1979
:10529000E361E1E7054B034AC9210348FCF79AFEA5
:1052A00074850010C884001094850010E4850010F7
:1052B00070B50400457D002D17D0FFF7BFFFA16931
:1052C000E2698B1A402B00D940232362D318CB1AF2
:1052D000584243412420235491420BD303D0200051
:1052E000FFF75CFF0025280070BD8178034A044861
:1052F000FCF78EFE0348FCF78BFEC04664030020DB
:10530000248500105085001010B50478002C04D0BE
:10531000002B09D1FFF7CCFF10BD0C21044B054A2F
:10532000FF310548FCF756FEFFF765FFF4E7C0467E
:1053300014850010E08400109485001070B50024DE
:1053400003E00D782C19A4B2491994420AD24D7881
:10535000052DF6D18E787A3535406D004519F60960
:10536000AB55EEE770BD000070B505001C4C372250
:1053700000212000FFF706FAE01C1022FF21FFF7B2
:1053800001FA200013301222FF21FFF7FBF900F091
:1053900095FF002411E0E31ADBB2002B07D1DA00FD
:1053A000D21A91000F4B5B1802E02300F5E70023AF
:1053B0005B68280098470134E4B20B4B1B785A1CF9
:1053C00094420BDA094A002AEFD0A342E3D9E20063
:1053D000121B9100064B1B685B18E9E770BDC046C5
:1053E000180D002028870010341500200000000050
:1053F0004C0C002070B505000C001600086900F088
:1054000067FFE36831002800984770BDF0B5CE46CD
:10541000474680B583B001900139C8B2FBF748F91F
:10542000002802D04378022B0AD0624A62496348BE
:10543000FFF7DCFA002003B00CBC90469946F0BDA3
:10544000C5796B1101225E4C134019012378102697
:10545000B343AD112A4052010B4320218B43134328
:105460002370060009368278C3781B0213438046F6
:1054700098447CE03378B146F61880E0CA22920066
:105480004D494E48FFF7B2FA0020D4E7E31ADBB2E9
:10549000002B07D1DA00D21A92004A4B9B1802E087
:1054A0002300F5E700239B682A0031000198984704
:1054B000071E13D10134E4B20094434B1B785A1CED
:1054C00094424EDA414A002AEAD0A342DED9E200F1
:1054D000121B92003E4B1B689B18E4E7082818D962
:1054E000854216D3B278364B9B18DB78FF2B17D149
:1054F000334B9B18DC704B46002B2AD09A78B3783C
:105500009A4214D14B461A7973799A420FD10123EA
:105510001BE0304A28492948FFF768FA00208AE74B
:105520002D4A25492548FFF761FA002083E72B4AD9
:1055300021492248FFF75AFA00207CE7B178591830
:105540001F4A5218D4700133DBB24A46D2789A42CD
:10555000F4D81B4823003A0031001330FFF7EEFE69
:10556000F619194B1B780133009A9A4210DA464516
:1055700016D273780B2B00D17CE700239946737801
:10558000042B00D07AE743469D1BADB2002493E77D
:10559000D522920008490948FFF728FA00204AE777
:1055A0000F4B002B03D0FBF71DF8012043E7012030
:1055B00041E7C04613030000D88600108C87001016
:1055C000180D00202887001034150020000000006E
:1055D0004C0C002036030000390300004303000098
:1055E000E5050010F0B583B004000D008B78C87895
:1055F00000021843030AC0B20F2B60D89B00334A45
:10560000D3589F46FBF74CF80200122329002000D4
:1056100000F002FE54E02E4B002B10D000E000BF43
:1056200006006B469F1D811C02223800FFF7B0F870
:105630003B8832002900200000F0EEFD40E0002011
:105640003EE0FBF735F8061E0DD06B469F1D811C12
:1056500002223800FFF79CF83B8832002900200026
:1056600000F0DAFD2CE01B4A1B491C48FFF7BEF98D
:10567000002025E00B79497909021943FBF71CF852
:1056800000281FD0037802002900200000F0C4FD8C
:1056900016E0134B002B17D000E000BF002806D007
:1056A000037802002900200000F0B6FD08E0F02297
:1056B000920009490948FFF799F9002000E000200D
:1056C00003B0F0BD0020FBE70020F9E704860010DE
:1056D00000000000A2030000EC8600108C87001080
:1056E0000000000010B5372200212348FFF74AF8D8
:1056F000224C2000FCF7AAF9214B1C60214C200011
:105700001830FCF7B4F9200001F081F91E4B1C6041
:105710001E4B002B04D01E4800E000BF1D4B18603C
:10572000002410E0E31ADBB2002B07D1DA00D21A12
:105730009100194B5B1802E02300F5E700231B687A
:1057400098470134E4B2124B1B785A1C94420BDA8E
:105750000E4A002AF0D0A342E4D9E200121B9100C5
:105760000C4B1B685B18EAE70020FFF7EFFB0020FB
:10577000FFF7A6FB012010BD180D0020D00C002063
:10578000500D00206C030020540D0020000000008C
:10579000341500204C0C00202887001010B54378E9
:1057A000032B71D031D9042B6AD0052B00D0A0E097
:1057B000644B1B78DB0767D5624A137804218B435F
:1057C0001370614B1C686369002B00D08BE0A269E9
:1057D000EFF3108172B61368002BFCD0BFF35F8F1C
:1057E000E1610100200001F0E4F8A269E369BFF380
:1057F0005F8F0021116083F31088002844D1AD220F
:1058000052495348FFF7F2F83EE0022B00D070E017
:105810004C4B1A7801218A431A701A7801318A4355
:105820001A7000225A701A7802318A431A70464B55
:105830001C686369002B1DD1A269EFF3108172B659
:105840001368002BFCD0BFF35F8FE16101002000E3
:1058500001F0AFF8A269E369BFF35F8F0021116027
:1058600083F3108800280FD1AD2238493848FFF75C
:10587000BDF809E0374B354AA3313748FCF7AAFB9E
:10588000304B1B78DB0700D410BD2E4A137804215F
:105890000B4313702C4B1C686369002B1DD1A2694C
:1058A000EFF3108172B61368002BFCD0BFF35F8F4B
:1058B000E1610100200001F07CF8A269E369BFF317
:1058C0005F8F0021116083F310880028DCD1AD22A6
:1058D0001E491F48FFF78AF8D6E71E4B1B4AA7212F
:1058E0001D48FCF777FB1B4B184AA3311A48FCF7FD
:1058F00071FB154B1C686369002B1DD1A269EFF386
:10590000108172B61368002BFCD0BFF35F8FE1618A
:105910000100200001F04DF8A269E369BFF35F8F39
:105920000021116083F310880028ADD1AD22074912
:105930000748FFF75BF8A7E7064B044AA72106488C
:10594000FCF748FB180D0020540D0020A486001021
:105950008C8700104487001054870010F0B585B084
:1059600007000E00150001AC0A2200216B46981DAD
:10597000FEF708FF2770667029002000FFF70EFF72
:1059800005B0F0BDF0B585B007000E00150001AC04
:105990000A2200216B46981DFEF7F4FE27700623AD
:1059A00063700822310002A8FEF7F2FE29002000F1
:1059B000FFF7F4FE05B0F0BDF0B5CE46474680B522
:1059C00085B08146884617001E000CAB1D7801ACDF
:1059D000062200216B46981DFEF7D4FE4B4623702D
:1059E0000723637043462371A76066712900200076
:1059F000FFF7D4FE05B00CBC90469946F0BD10B53B
:105A0000FFF70EFB10BD0000F0B5CE4600B582B02A
:105A100001900C0091461E00002515E0174A184918
:105A20001848FEF7E3FF0027380002B004BC914697
:105A3000F0BD154A12491348FEF7D8FFF4E7099A5A
:105A400013702378E4180135A94514DD6378052B1C
:105A5000E4D1E3789B079B0FB342DFD1210001988B
:105A6000FFF7CDFF071EE4D0A378DA09012AE6D0BC
:105A7000089A1370E5E70127D6E7C0462D04000019
:105A8000048700108C8700102E04000070B57F265C
:105A90000E40CD0972001D4B9B185B1920335C79B9
:105AA000E407E40F2ED1194B9B185B1920335B7967
:105AB0005B0728D4164B18680121494201F0F4FC19
:105AC0007200124B9B185B1920335B79DB0708D4FB
:105AD0000E4B9B185B1920335B795B0702D40124C2
